{
  "contractName": "Voting",
  "abi": [
    {
      "anonymous": false,
      "inputs": [
        {
          "indexed": true,
          "internalType": "address",
          "name": "previousOwner",
          "type": "address"
        },
        {
          "indexed": true,
          "internalType": "address",
          "name": "newOwner",
          "type": "address"
        }
      ],
      "name": "OwnershipTransferred",
      "type": "event"
    },
    {
      "anonymous": false,
      "inputs": [
        {
          "indexed": false,
          "internalType": "uint256",
          "name": "proposalId",
          "type": "uint256"
        }
      ],
      "name": "ProposalRegistered",
      "type": "event"
    },
    {
      "anonymous": false,
      "inputs": [
        {
          "indexed": false,
          "internalType": "address",
          "name": "voter",
          "type": "address"
        },
        {
          "indexed": false,
          "internalType": "uint256",
          "name": "proposalId",
          "type": "uint256"
        }
      ],
      "name": "Voted",
      "type": "event"
    },
    {
      "anonymous": false,
      "inputs": [
        {
          "indexed": false,
          "internalType": "address",
          "name": "voterAddress",
          "type": "address"
        }
      ],
      "name": "VoterRegistered",
      "type": "event"
    },
    {
      "anonymous": false,
      "inputs": [
        {
          "indexed": false,
          "internalType": "enum Voting.WorkflowStatus",
          "name": "previousStatus",
          "type": "uint8"
        },
        {
          "indexed": false,
          "internalType": "enum Voting.WorkflowStatus",
          "name": "newStatus",
          "type": "uint8"
        }
      ],
      "name": "WorkflowStatusChange",
      "type": "event"
    },
    {
      "inputs": [],
      "name": "nbVoters",
      "outputs": [
        {
          "internalType": "uint256",
          "name": "",
          "type": "uint256"
        }
      ],
      "stateMutability": "view",
      "type": "function",
      "constant": true
    },
    {
      "inputs": [],
      "name": "owner",
      "outputs": [
        {
          "internalType": "address",
          "name": "",
          "type": "address"
        }
      ],
      "stateMutability": "view",
      "type": "function",
      "constant": true
    },
    {
      "inputs": [],
      "name": "renounceOwnership",
      "outputs": [],
      "stateMutability": "nonpayable",
      "type": "function"
    },
    {
      "inputs": [
        {
          "internalType": "address",
          "name": "newOwner",
          "type": "address"
        }
      ],
      "name": "transferOwnership",
      "outputs": [],
      "stateMutability": "nonpayable",
      "type": "function"
    },
    {
      "inputs": [],
      "name": "winningProposalID",
      "outputs": [
        {
          "internalType": "uint256",
          "name": "",
          "type": "uint256"
        }
      ],
      "stateMutability": "view",
      "type": "function",
      "constant": true
    },
    {
      "inputs": [],
      "name": "workflowStatus",
      "outputs": [
        {
          "internalType": "enum Voting.WorkflowStatus",
          "name": "",
          "type": "uint8"
        }
      ],
      "stateMutability": "view",
      "type": "function",
      "constant": true
    },
    {
      "inputs": [
        {
          "internalType": "address",
          "name": "_addr",
          "type": "address"
        }
      ],
      "name": "getVoter",
      "outputs": [
        {
          "components": [
            {
              "internalType": "bool",
              "name": "isRegistered",
              "type": "bool"
            },
            {
              "internalType": "bool",
              "name": "hasVoted",
              "type": "bool"
            },
            {
              "internalType": "uint256",
              "name": "votedProposalId",
              "type": "uint256"
            }
          ],
          "internalType": "struct Voting.Voter",
          "name": "",
          "type": "tuple"
        }
      ],
      "stateMutability": "view",
      "type": "function",
      "constant": true
    },
    {
      "inputs": [],
      "name": "getNbVoters",
      "outputs": [
        {
          "internalType": "uint256",
          "name": "",
          "type": "uint256"
        }
      ],
      "stateMutability": "view",
      "type": "function",
      "constant": true
    },
    {
      "inputs": [
        {
          "internalType": "uint256",
          "name": "_id",
          "type": "uint256"
        }
      ],
      "name": "getOneProposal",
      "outputs": [
        {
          "components": [
            {
              "internalType": "string",
              "name": "description",
              "type": "string"
            },
            {
              "internalType": "uint256",
              "name": "voteCount",
              "type": "uint256"
            }
          ],
          "internalType": "struct Voting.Proposal",
          "name": "",
          "type": "tuple"
        }
      ],
      "stateMutability": "view",
      "type": "function",
      "constant": true
    },
    {
      "inputs": [],
      "name": "getProposals",
      "outputs": [
        {
          "components": [
            {
              "internalType": "string",
              "name": "description",
              "type": "string"
            },
            {
              "internalType": "uint256",
              "name": "voteCount",
              "type": "uint256"
            }
          ],
          "internalType": "struct Voting.Proposal[]",
          "name": "",
          "type": "tuple[]"
        }
      ],
      "stateMutability": "view",
      "type": "function",
      "constant": true
    },
    {
      "inputs": [],
      "name": "getStatus",
      "outputs": [
        {
          "internalType": "enum Voting.WorkflowStatus",
          "name": "",
          "type": "uint8"
        }
      ],
      "stateMutability": "view",
      "type": "function",
      "constant": true
    },
    {
      "inputs": [
        {
          "internalType": "address",
          "name": "_addr",
          "type": "address"
        }
      ],
      "name": "addVoter",
      "outputs": [],
      "stateMutability": "nonpayable",
      "type": "function"
    },
    {
      "inputs": [
        {
          "internalType": "string",
          "name": "_desc",
          "type": "string"
        }
      ],
      "name": "addProposal",
      "outputs": [],
      "stateMutability": "nonpayable",
      "type": "function"
    },
    {
      "inputs": [
        {
          "internalType": "uint256",
          "name": "_id",
          "type": "uint256"
        }
      ],
      "name": "setVote",
      "outputs": [],
      "stateMutability": "nonpayable",
      "type": "function"
    },
    {
      "inputs": [],
      "name": "startProposalsRegistering",
      "outputs": [],
      "stateMutability": "nonpayable",
      "type": "function"
    },
    {
      "inputs": [],
      "name": "endProposalsRegistering",
      "outputs": [],
      "stateMutability": "nonpayable",
      "type": "function"
    },
    {
      "inputs": [],
      "name": "startVotingSession",
      "outputs": [],
      "stateMutability": "nonpayable",
      "type": "function"
    },
    {
      "inputs": [],
      "name": "endVotingSession",
      "outputs": [],
      "stateMutability": "nonpayable",
      "type": "function"
    },
    {
      "inputs": [],
      "name": "tallyVotes",
      "outputs": [],
      "stateMutability": "nonpayable",
      "type": "function"
    }
  ],
  "bytecode": "0x60806040523480156200001157600080fd5b5062000032620000266200003860201b60201c565b6200004060201b60201c565b62000104565b600033905090565b60008060009054906101000a900473ffffffffffffffffffffffffffffffffffffffff169050816000806101000a81548173ffffffffffffffffffffffffffffffffffffffff021916908373ffffffffffffffffffffffffffffffffffffffff1602179055508173ffffffffffffffffffffffffffffffffffffffff168173ffffffffffffffffffffffffffffffffffffffff167f8be0079c531659141344cd1fd0a4f28419497f9722a3daafe3b4186f6b6457e060405160405180910390a35050565b61287280620001146000396000f3fe608060405234801561001057600080fd5b50600436106101215760003560e01c8063a2788cce116100ad578063c88af42f11610071578063c88af42f14610288578063d4f50f9814610292578063ee74c678146102c2578063f2fde38b146102cc578063f4ab9adf146102e857610121565b8063a2788cce14610208578063a7bfab1614610238578063bdc0143114610242578063bfcddbbc14610260578063c7038a4e1461027e57610121565b806362564c48116100f457806362564c48146101865780636ea212ca146101a4578063715018a6146101c25780638da5cb5b146101cc578063a1edffa2146101ea57610121565b8063230796ae146101265780632fdae3c514610142578063378a21781461015e5780634e69d56014610168575b600080fd5b610140600480360381019061013b919061192a565b610304565b005b61015c60048036038101906101579190611a9d565b610600565b005b610166610843565b005b610170610a24565b60405161017d9190611b5d565b60405180910390f35b61018e610a3b565b60405161019b9190611d0e565b60405180910390f35b6101ac610b36565b6040516101b99190611d3f565b60405180910390f35b6101ca610b40565b005b6101d4610bc8565b6040516101e19190611d9b565b60405180910390f35b6101f2610bf1565b6040516101ff9190611b5d565b60405180910390f35b610222600480360381019061021d919061192a565b610c04565b60405161022f9190611df3565b60405180910390f35b610240610d6b565b005b61024a610ec5565b6040516102579190611d3f565b60405180910390f35b610268610ecb565b6040516102759190611d3f565b60405180910390f35b610286610ed1565b005b61029061102b565b005b6102ac60048036038101906102a79190611e41565b611184565b6040516102b99190611ecb565b60405180910390f35b6102ca6112ac565b005b6102e660048036038101906102e19190611e41565b611406565b005b61030260048036038101906102fd9190611e41565b6114fd565b005b600460003373ffffffffffffffffffffffffffffffffffffffff1673ffffffffffffffffffffffffffffffffffffffff16815260200190815260200160002060000160009054906101000a900460ff16610393576040517f08c379a000000000000000000000000000000000000000000000000000000000815260040161038a90611f43565b60405180910390fd5b600360058111156103a7576103a6611ae6565b5b600260009054906101000a900460ff1660058111156103c9576103c8611ae6565b5b14610409576040517f08c379a000000000000000000000000000000000000000000000000000000000815260040161040090611fd5565b60405180910390fd5b60011515600460003373ffffffffffffffffffffffffffffffffffffffff1673ffffffffffffffffffffffffffffffffffffffff16815260200190815260200160002060000160019054906101000a900460ff1615150361049f576040517f08c379a000000000000000000000000000000000000000000000000000000000815260040161049690612041565b60405180910390fd5b6003805490508111156104e7576040517f08c379a00000000000000000000000000000000000000000000000000000000081526004016104de906120ad565b60405180910390fd5b80600460003373ffffffffffffffffffffffffffffffffffffffff1673ffffffffffffffffffffffffffffffffffffffff168152602001908152602001600020600101819055506001600460003373ffffffffffffffffffffffffffffffffffffffff1673ffffffffffffffffffffffffffffffffffffffff16815260200190815260200160002060000160016101000a81548160ff0219169083151502179055506003818154811061059d5761059c6120cd565b5b906000526020600020906002020160010160008154809291906105bf9061212b565b91905055507f4d99b957a2bc29a30ebd96a7be8e68fe50a3c701db28a91436490b7d53870ca433826040516105f5929190612173565b60405180910390a150565b600460003373ffffffffffffffffffffffffffffffffffffffff1673ffffffffffffffffffffffffffffffffffffffff16815260200190815260200160002060000160009054906101000a900460ff1661068f576040517f08c379a000000000000000000000000000000000000000000000000000000000815260040161068690611f43565b60405180910390fd5b600160058111156106a3576106a2611ae6565b5b600260009054906101000a900460ff1660058111156106c5576106c4611ae6565b5b14610705576040517f08c379a00000000000000000000000000000000000000000000000000000000081526004016106fc906121e8565b60405180910390fd5b6040516020016107149061222e565b604051602081830303815290604052805190602001208160405160200161073b9190612287565b6040516020818303038152906040528051906020012003610791576040517f08c379a00000000000000000000000000000000000000000000000000000000081526004016107889061231b565b60405180910390fd5b6107996117fe565b818160000181905250600381908060018154018082558091505060019003906000526020600020906002020160009091909190915060008201518160000190805190602001906107ea929190611818565b506020820151816001015550507f92e393e9b54e2f801d3ea4beb0c5e71a21cc34a5d34b77d0fb8a3aa1650dc18f600160038054905061082a919061233b565b6040516108379190611d3f565b60405180910390a15050565b61084b611732565b73ffffffffffffffffffffffffffffffffffffffff16610869610bc8565b73ffffffffffffffffffffffffffffffffffffffff16146108bf576040517f08c379a00000000000000000000000000000000000000000000000000000000081526004016108b6906123bb565b60405180910390fd5b600460058111156108d3576108d2611ae6565b5b600260009054906101000a900460ff1660058111156108f5576108f4611ae6565b5b14610935576040517f08c379a000000000000000000000000000000000000000000000000000000000815260040161092c9061244d565b60405180910390fd5b600080600090505b6003805490508110156109b3576003828154811061095e5761095d6120cd565b5b90600052602060002090600202016001015460038281548110610984576109836120cd565b5b90600052602060002090600202016001015411156109a0578091505b80806109ab9061212b565b91505061093d565b50806001819055506005600260006101000a81548160ff021916908360058111156109e1576109e0611ae6565b5b02179055507f0a97a4ee45751e2abf3e4fc8946939630b11b371ea8ae39ccdc3056e98f5cc3f60046005604051610a1992919061246d565b60405180910390a150565b6000600260009054906101000a900460ff16905090565b60606003805480602002602001604051908101604052809291908181526020016000905b82821015610b2d5783829060005260206000209060020201604051806040016040529081600082018054610a92906124c5565b80601f0160208091040260200160405190810160405280929190818152602001828054610abe906124c5565b8015610b0b5780601f10610ae057610100808354040283529160200191610b0b565b820191906000526020600020905b815481529060010190602001808311610aee57829003601f168201915b5050505050815260200160018201548152505081526020019060010190610a5f565b50505050905090565b6000600554905090565b610b48611732565b73ffffffffffffffffffffffffffffffffffffffff16610b66610bc8565b73ffffffffffffffffffffffffffffffffffffffff1614610bbc576040517f08c379a0000000000000000000000000000000000000000000000000000000008152600401610bb3906123bb565b60405180910390fd5b610bc6600061173a565b565b60008060009054906101000a900473ffffffffffffffffffffffffffffffffffffffff16905090565b600260009054906101000a900460ff1681565b610c0c6117fe565b600460003373ffffffffffffffffffffffffffffffffffffffff1673ffffffffffffffffffffffffffffffffffffffff16815260200190815260200160002060000160009054906101000a900460ff16610c9b576040517f08c379a0000000000000000000000000000000000000000000000000000000008152600401610c9290611f43565b60405180910390fd5b60038281548110610caf57610cae6120cd565b5b9060005260206000209060020201604051806040016040529081600082018054610cd8906124c5565b80601f0160208091040260200160405190810160405280929190818152602001828054610d04906124c5565b8015610d515780601f10610d2657610100808354040283529160200191610d51565b820191906000526020600020905b815481529060010190602001808311610d3457829003601f168201915b505050505081526020016001820154815250509050919050565b610d73611732565b73ffffffffffffffffffffffffffffffffffffffff16610d91610bc8565b73ffffffffffffffffffffffffffffffffffffffff1614610de7576040517f08c379a0000000000000000000000000000000000000000000000000000000008152600401610dde906123bb565b60405180910390fd5b60036005811115610dfb57610dfa611ae6565b5b600260009054906101000a900460ff166005811115610e1d57610e1c611ae6565b5b14610e5d576040517f08c379a0000000000000000000000000000000000000000000000000000000008152600401610e5490611fd5565b60405180910390fd5b6004600260006101000a81548160ff02191690836005811115610e8357610e82611ae6565b5b02179055507f0a97a4ee45751e2abf3e4fc8946939630b11b371ea8ae39ccdc3056e98f5cc3f60036004604051610ebb92919061246d565b60405180910390a1565b60015481565b60055481565b610ed9611732565b73ffffffffffffffffffffffffffffffffffffffff16610ef7610bc8565b73ffffffffffffffffffffffffffffffffffffffff1614610f4d576040517f08c379a0000000000000000000000000000000000000000000000000000000008152600401610f44906123bb565b60405180910390fd5b60006005811115610f6157610f60611ae6565b5b600260009054906101000a900460ff166005811115610f8357610f82611ae6565b5b14610fc3576040517f08c379a0000000000000000000000000000000000000000000000000000000008152600401610fba90612568565b60405180910390fd5b6001600260006101000a81548160ff02191690836005811115610fe957610fe8611ae6565b5b02179055507f0a97a4ee45751e2abf3e4fc8946939630b11b371ea8ae39ccdc3056e98f5cc3f6000600160405161102192919061246d565b60405180910390a1565b611033611732565b73ffffffffffffffffffffffffffffffffffffffff16611051610bc8565b73ffffffffffffffffffffffffffffffffffffffff16146110a7576040517f08c379a000000000000000000000000000000000000000000000000000000000815260040161109e906123bb565b60405180910390fd5b600160058111156110bb576110ba611ae6565b5b600260009054906101000a900460ff1660058111156110dd576110dc611ae6565b5b1461111d576040517f08c379a0000000000000000000000000000000000000000000000000000000008152600401611114906125fa565b60405180910390fd5b60028060006101000a81548160ff0219169083600581111561114257611141611ae6565b5b02179055507f0a97a4ee45751e2abf3e4fc8946939630b11b371ea8ae39ccdc3056e98f5cc3f6001600260405161117a92919061246d565b60405180910390a1565b61118c61189e565b600460003373ffffffffffffffffffffffffffffffffffffffff1673ffffffffffffffffffffffffffffffffffffffff16815260200190815260200160002060000160009054906101000a900460ff1661121b576040517f08c379a000000000000000000000000000000000000000000000000000000000815260040161121290611f43565b60405180910390fd5b600460008373ffffffffffffffffffffffffffffffffffffffff1673ffffffffffffffffffffffffffffffffffffffff1681526020019081526020016000206040518060600160405290816000820160009054906101000a900460ff161515151581526020016000820160019054906101000a900460ff161515151581526020016001820154815250509050919050565b6112b4611732565b73ffffffffffffffffffffffffffffffffffffffff166112d2610bc8565b73ffffffffffffffffffffffffffffffffffffffff1614611328576040517f08c379a000000000000000000000000000000000000000000000000000000000815260040161131f906123bb565b60405180910390fd5b6002600581111561133c5761133b611ae6565b5b600260009054906101000a900460ff16600581111561135e5761135d611ae6565b5b1461139e576040517f08c379a00000000000000000000000000000000000000000000000000000000081526004016113959061268c565b60405180910390fd5b6003600260006101000a81548160ff021916908360058111156113c4576113c3611ae6565b5b02179055507f0a97a4ee45751e2abf3e4fc8946939630b11b371ea8ae39ccdc3056e98f5cc3f600260036040516113fc92919061246d565b60405180910390a1565b61140e611732565b73ffffffffffffffffffffffffffffffffffffffff1661142c610bc8565b73ffffffffffffffffffffffffffffffffffffffff1614611482576040517f08c379a0000000000000000000000000000000000000000000000000000000008152600401611479906123bb565b60405180910390fd5b600073ffffffffffffffffffffffffffffffffffffffff168173ffffffffffffffffffffffffffffffffffffffff16036114f1576040517f08c379a00000000000000000000000000000000000000000000000000000000081526004016114e89061271e565b60405180910390fd5b6114fa8161173a565b50565b611505611732565b73ffffffffffffffffffffffffffffffffffffffff16611523610bc8565b73ffffffffffffffffffffffffffffffffffffffff1614611579576040517f08c379a0000000000000000000000000000000000000000000000000000000008152600401611570906123bb565b60405180910390fd5b6000600581111561158d5761158c611ae6565b5b600260009054906101000a900460ff1660058111156115af576115ae611ae6565b5b146115ef576040517f08c379a00000000000000000000000000000000000000000000000000000000081526004016115e6906127b0565b60405180910390fd5b60011515600460008373ffffffffffffffffffffffffffffffffffffffff1673ffffffffffffffffffffffffffffffffffffffff16815260200190815260200160002060000160009054906101000a900460ff16151503611685576040517f08c379a000000000000000000000000000000000000000000000000000000000815260040161167c9061281c565b60405180910390fd5b6001600460008373ffffffffffffffffffffffffffffffffffffffff1673ffffffffffffffffffffffffffffffffffffffff16815260200190815260200160002060000160006101000a81548160ff021916908315150217905550600560008154809291906116f39061212b565b91905055507fb6be2187d059cc2a55fe29e0e503b566e1e0f8c8780096e185429350acffd3dd816040516117279190611d9b565b60405180910390a150565b600033905090565b60008060009054906101000a900473ffffffffffffffffffffffffffffffffffffffff169050816000806101000a81548173ffffffffffffffffffffffffffffffffffffffff021916908373ffffffffffffffffffffffffffffffffffffffff1602179055508173ffffffffffffffffffffffffffffffffffffffff168173ffffffffffffffffffffffffffffffffffffffff167f8be0079c531659141344cd1fd0a4f28419497f9722a3daafe3b4186f6b6457e060405160405180910390a35050565b604051806040016040528060608152602001600081525090565b828054611824906124c5565b90600052602060002090601f016020900481019282611846576000855561188d565b82601f1061185f57805160ff191683800117855561188d565b8280016001018555821561188d579182015b8281111561188c578251825591602001919060010190611871565b5b50905061189a91906118c3565b5090565b6040518060600160405280600015158152602001600015158152602001600081525090565b5b808211156118dc5760008160009055506001016118c4565b5090565b6000604051905090565b600080fd5b600080fd5b6000819050919050565b611907816118f4565b811461191257600080fd5b50565b600081359050611924816118fe565b92915050565b6000602082840312156119405761193f6118ea565b5b600061194e84828501611915565b91505092915050565b600080fd5b600080fd5b6000601f19601f8301169050919050565b7f4e487b7100000000000000000000000000000000000000000000000000000000600052604160045260246000fd5b6119aa82611961565b810181811067ffffffffffffffff821117156119c9576119c8611972565b5b80604052505050565b60006119dc6118e0565b90506119e882826119a1565b919050565b600067ffffffffffffffff821115611a0857611a07611972565b5b611a1182611961565b9050602081019050919050565b82818337600083830152505050565b6000611a40611a3b846119ed565b6119d2565b905082815260208101848484011115611a5c57611a5b61195c565b5b611a67848285611a1e565b509392505050565b600082601f830112611a8457611a83611957565b5b8135611a94848260208601611a2d565b91505092915050565b600060208284031215611ab357611ab26118ea565b5b600082013567ffffffffffffffff811115611ad157611ad06118ef565b5b611add84828501611a6f565b91505092915050565b7f4e487b7100000000000000000000000000000000000000000000000000000000600052602160045260246000fd5b60068110611b2657611b25611ae6565b5b50565b6000819050611b3782611b15565b919050565b6000611b4782611b29565b9050919050565b611b5781611b3c565b82525050565b6000602082019050611b726000830184611b4e565b92915050565b600081519050919050565b600082825260208201905092915050565b6000819050602082019050919050565b600081519050919050565b600082825260208201905092915050565b60005b83811015611bde578082015181840152602081019050611bc3565b83811115611bed576000848401525b50505050565b6000611bfe82611ba4565b611c088185611baf565b9350611c18818560208601611bc0565b611c2181611961565b840191505092915050565b611c35816118f4565b82525050565b60006040830160008301518482036000860152611c588282611bf3565b9150506020830151611c6d6020860182611c2c565b508091505092915050565b6000611c848383611c3b565b905092915050565b6000602082019050919050565b6000611ca482611b78565b611cae8185611b83565b935083602082028501611cc085611b94565b8060005b85811015611cfc5784840389528151611cdd8582611c78565b9450611ce883611c8c565b925060208a01995050600181019050611cc4565b50829750879550505050505092915050565b60006020820190508181036000830152611d288184611c99565b905092915050565b611d39816118f4565b82525050565b6000602082019050611d546000830184611d30565b92915050565b600073ffffffffffffffffffffffffffffffffffffffff82169050919050565b6000611d8582611d5a565b9050919050565b611d9581611d7a565b82525050565b6000602082019050611db06000830184611d8c565b92915050565b60006040830160008301518482036000860152611dd38282611bf3565b9150506020830151611de86020860182611c2c565b508091505092915050565b60006020820190508181036000830152611e0d8184611db6565b905092915050565b611e1e81611d7a565b8114611e2957600080fd5b50565b600081359050611e3b81611e15565b92915050565b600060208284031215611e5757611e566118ea565b5b6000611e6584828501611e2c565b91505092915050565b60008115159050919050565b611e8381611e6e565b82525050565b606082016000820151611e9f6000850182611e7a565b506020820151611eb26020850182611e7a565b506040820151611ec56040850182611c2c565b50505050565b6000606082019050611ee06000830184611e89565b92915050565b600082825260208201905092915050565b7f596f75277265206e6f74206120766f7465720000000000000000000000000000600082015250565b6000611f2d601283611ee6565b9150611f3882611ef7565b602082019050919050565b60006020820190508181036000830152611f5c81611f20565b9050919050565b7f566f74696e672073657373696f6e20686176656e74207374617274656420796560008201527f7400000000000000000000000000000000000000000000000000000000000000602082015250565b6000611fbf602183611ee6565b9150611fca82611f63565b604082019050919050565b60006020820190508181036000830152611fee81611fb2565b9050919050565b7f596f75206861766520616c726561647920766f74656400000000000000000000600082015250565b600061202b601683611ee6565b915061203682611ff5565b602082019050919050565b6000602082019050818103600083015261205a8161201e565b9050919050565b7f50726f706f73616c206e6f7420666f756e640000000000000000000000000000600082015250565b6000612097601283611ee6565b91506120a282612061565b602082019050919050565b600060208201905081810360008301526120c68161208a565b9050919050565b7f4e487b7100000000000000000000000000000000000000000000000000000000600052603260045260246000fd5b7f4e487b7100000000000000000000000000000000000000000000000000000000600052601160045260246000fd5b6000612136826118f4565b91507fffffffffffffffffffffffffffffffffffffffffffffffffffffffffffffffff8203612168576121676120fc565b5b600182019050919050565b60006040820190506121886000830185611d8c565b6121956020830184611d30565b9392505050565b7f50726f706f73616c7320617265206e6f7420616c6c6f77656420796574000000600082015250565b60006121d2601d83611ee6565b91506121dd8261219c565b602082019050919050565b60006020820190508181036000830152612201816121c5565b9050919050565b50565b6000612218600083611ee6565b915061222382612208565b600082019050919050565b600060208201905081810360008301526122478161220b565b9050919050565b600061225982611ba4565b6122638185611ee6565b9350612273818560208601611bc0565b61227c81611961565b840191505092915050565b600060208201905081810360008301526122a1818461224e565b905092915050565b7f566f7573206e6520706f7576657a20706173206e65207269656e2070726f706f60008201527f7365720000000000000000000000000000000000000000000000000000000000602082015250565b6000612305602383611ee6565b9150612310826122a9565b604082019050919050565b60006020820190508181036000830152612334816122f8565b9050919050565b6000612346826118f4565b9150612351836118f4565b925082821015612364576123636120fc565b5b828203905092915050565b7f4f776e61626c653a2063616c6c6572206973206e6f7420746865206f776e6572600082015250565b60006123a5602083611ee6565b91506123b08261236f565b602082019050919050565b600060208201905081810360008301526123d481612398565b9050919050565b7f43757272656e7420737461747573206973206e6f7420766f74696e672073657360008201527f73696f6e20656e64656400000000000000000000000000000000000000000000602082015250565b6000612437602a83611ee6565b9150612442826123db565b604082019050919050565b600060208201905081810360008301526124668161242a565b9050919050565b60006040820190506124826000830185611b4e565b61248f6020830184611b4e565b9392505050565b7f4e487b7100000000000000000000000000000000000000000000000000000000600052602260045260246000fd5b600060028204905060018216806124dd57607f821691505b6020821081036124f0576124ef612496565b5b50919050565b7f5265676973746572696e672070726f706f73616c732063616e7420626520737460008201527f6172746564206e6f770000000000000000000000000000000000000000000000602082015250565b6000612552602983611ee6565b915061255d826124f6565b604082019050919050565b6000602082019050818103600083015261258181612545565b9050919050565b7f5265676973746572696e672070726f706f73616c7320686176656e742073746160008201527f7274656420796574000000000000000000000000000000000000000000000000602082015250565b60006125e4602883611ee6565b91506125ef82612588565b604082019050919050565b60006020820190508181036000830152612613816125d7565b9050919050565b7f5265676973746572696e672070726f706f73616c73207068617365206973206e60008201527f6f742066696e6973686564000000000000000000000000000000000000000000602082015250565b6000612676602b83611ee6565b91506126818261261a565b604082019050919050565b600060208201905081810360008301526126a581612669565b9050919050565b7f4f776e61626c653a206e6577206f776e657220697320746865207a65726f206160008201527f6464726573730000000000000000000000000000000000000000000000000000602082015250565b6000612708602683611ee6565b9150612713826126ac565b604082019050919050565b60006020820190508181036000830152612737816126fb565b9050919050565b7f566f7465727320726567697374726174696f6e206973206e6f74206f70656e2060008201527f7965740000000000000000000000000000000000000000000000000000000000602082015250565b600061279a602383611ee6565b91506127a58261273e565b604082019050919050565b600060208201905081810360008301526127c98161278d565b9050919050565b7f416c726561647920726567697374657265640000000000000000000000000000600082015250565b6000612806601283611ee6565b9150612811826127d0565b602082019050919050565b60006020820190508181036000830152612835816127f9565b905091905056fea2646970667358221220cb6a997114c87cde1f629399150a57b9642c2cec02255b5b47332c522af4421464736f6c634300080d0033",
  "immutableReferences": {},
  "source": "// SPDX-License-Identifier: MIT\n\npragma solidity 0.8.13;\nimport \"@openzeppelin/contracts/access/Ownable.sol\";\n\n\ncontract Voting is Ownable {\n\n    // arrays for draw, uint for single\n    // uint[] winningProposalsID;\n    // Proposal[] public winningProposals;\n    uint public winningProposalID;\n    \n    struct Voter {\n        bool isRegistered;\n        bool hasVoted;\n        uint votedProposalId;\n    }\n\n    struct Proposal {\n        string description;\n        uint voteCount;\n    }\n\n    enum  WorkflowStatus {\n        RegisteringVoters,\n        ProposalsRegistrationStarted,\n        ProposalsRegistrationEnded,\n        VotingSessionStarted,\n        VotingSessionEnded,\n        VotesTallied\n    }\n\n    WorkflowStatus public workflowStatus;\n    Proposal[] proposalsArray;\n    mapping (address => Voter) voters;\n    uint public nbVoters;\n\n    event VoterRegistered(address voterAddress); \n    event WorkflowStatusChange(WorkflowStatus previousStatus, WorkflowStatus newStatus);\n    event ProposalRegistered(uint proposalId);\n    event Voted (address voter, uint proposalId);\n\n    modifier onlyVoters() {\n        require(voters[msg.sender].isRegistered, \"You're not a voter\");\n        _;\n    }\n    \n    // on peut faire un modifier pour les tats\n\n    // ::::::::::::: GETTERS ::::::::::::: //\n\n    function getVoter(address _addr) external onlyVoters view returns (Voter memory) {\n        return voters[_addr];\n    }\n\n    function getNbVoters() external view returns (uint) {\n        return nbVoters;\n    }\n    \n    function getOneProposal(uint _id) external onlyVoters view returns (Proposal memory) {\n        return proposalsArray[_id];\n    }\n\n    function getProposals() external view returns (Proposal[] memory) {\n        return proposalsArray;\n    }\n\n    function getStatus() public view returns (WorkflowStatus) {\n        return workflowStatus;\n    }\n \n    // ::::::::::::: REGISTRATION ::::::::::::: // \n\n    function addVoter(address _addr) external onlyOwner {\n        require(workflowStatus == WorkflowStatus.RegisteringVoters, 'Voters registration is not open yet');\n        require(voters[_addr].isRegistered != true, 'Already registered');\n    \n        voters[_addr].isRegistered = true;\n        nbVoters++;\n        emit VoterRegistered(_addr);\n    }\n \n    /* facultatif\n     * function deleteVoter(address _addr) external onlyOwner {\n     *   require(workflowStatus == WorkflowStatus.RegisteringVoters, 'Voters registration is not open yet');\n     *   require(voters[_addr].isRegistered == true, 'Not registered.');\n     *   voters[_addr].isRegistered = false;\n     *  emit VoterRegistered(_addr);\n    }*/\n\n    // ::::::::::::: PROPOSAL ::::::::::::: // \n\n    function addProposal(string memory _desc) external onlyVoters {\n        require(workflowStatus == WorkflowStatus.ProposalsRegistrationStarted, 'Proposals are not allowed yet');\n        require(keccak256(abi.encode(_desc)) != keccak256(abi.encode(\"\")), 'Vous ne pouvez pas ne rien proposer'); // facultatif\n        // voir que desc est different des autres\n\n        Proposal memory proposal;\n        proposal.description = _desc;\n        proposalsArray.push(proposal);\n        emit ProposalRegistered(proposalsArray.length-1);\n    }\n\n    // ::::::::::::: VOTE ::::::::::::: //\n\n    function setVote( uint _id) external onlyVoters {\n        require(workflowStatus == WorkflowStatus.VotingSessionStarted, 'Voting session havent started yet');\n        require(voters[msg.sender].hasVoted != true, 'You have already voted');\n        require(_id <= proposalsArray.length, 'Proposal not found'); // pas oblig, et pas besoin du >0 car uint\n\n        voters[msg.sender].votedProposalId = _id;\n        voters[msg.sender].hasVoted = true;\n        proposalsArray[_id].voteCount++;\n\n        emit Voted(msg.sender, _id);\n    }\n\n    // ::::::::::::: STATE ::::::::::::: //\n\n    /* on pourrait factoriser tout a: par exemple:\n    *\n    *  modifier checkWorkflowStatus(uint  _num) {\n    *    require (workflowStatus=WorkflowStatus(uint(_num)-1, \"bad workflowstatus\");\n    *    require (num != 5, \"il faut lancer tally votes\");\n    *    _;\n    *  }\n    *\n    *  function setWorkflowStatus(WorkflowStatus _num) public checkWorkflowStatus( _num) onlyOwner {\n    *    WorkflowStatus old = workflowStatus;\n    *    workflowStatus = WorkflowStatus(_num);\n    *    emit WorkflowStatusChange(old, workflowStatus);\n    *   } \n    *\n    *  ou plus simplement:\n    *  function nextWorkflowStatus() onlyOwner{\n    *    require (uint(workflowStatus)!=4, \"il faut lancer tallyvotes\");\n    *    WorkflowStatus old = workflowStatus;\n    *    workflowStatus= WorkflowStatus(uint (workflowstatus) + 1);\n    *    emit WorkflowStatusChange(old, workflowStatus);\n    *  }\n    *\n    */ \n\n\n    function startProposalsRegistering() external onlyOwner {\n        require(workflowStatus == WorkflowStatus.RegisteringVoters, 'Registering proposals cant be started now');\n        workflowStatus = WorkflowStatus.ProposalsRegistrationStarted;\n        emit WorkflowStatusChange(WorkflowStatus.RegisteringVoters, WorkflowStatus.ProposalsRegistrationStarted);\n    }\n\n    function endProposalsRegistering() external onlyOwner {\n        require(workflowStatus == WorkflowStatus.ProposalsRegistrationStarted, 'Registering proposals havent started yet');\n        workflowStatus = WorkflowStatus.ProposalsRegistrationEnded;\n        emit WorkflowStatusChange(WorkflowStatus.ProposalsRegistrationStarted, WorkflowStatus.ProposalsRegistrationEnded);\n    }\n\n    function startVotingSession() external onlyOwner {\n        require(workflowStatus == WorkflowStatus.ProposalsRegistrationEnded, 'Registering proposals phase is not finished');\n        workflowStatus = WorkflowStatus.VotingSessionStarted;\n        emit WorkflowStatusChange(WorkflowStatus.ProposalsRegistrationEnded, WorkflowStatus.VotingSessionStarted);\n    }\n\n    function endVotingSession() external onlyOwner {\n        require(workflowStatus == WorkflowStatus.VotingSessionStarted, 'Voting session havent started yet');\n        workflowStatus = WorkflowStatus.VotingSessionEnded;\n        emit WorkflowStatusChange(WorkflowStatus.VotingSessionStarted, WorkflowStatus.VotingSessionEnded);\n    }\n\n    /* function tallyVotesDraw() external onlyOwner {\n       require(workflowStatus == WorkflowStatus.VotingSessionEnded, \"Current status is not voting session ended\");\n        uint highestCount;\n        uint[5]memory winners; // egalite entre 5 personnes max\n        uint nbWinners;\n        for (uint i = 0; i < proposalsArray.length; i++) {\n            if (proposalsArray[i].voteCount == highestCount) {\n                winners[nbWinners]=i;\n                nbWinners++;\n            }\n            if (proposalsArray[i].voteCount > highestCount) {\n                delete winners;\n                winners[0]= i;\n                highestCount = proposalsArray[i].voteCount;\n                nbWinners=1;\n            }\n        }\n        for(uint j=0;j<nbWinners;j++){\n            winningProposalsID.push(winners[j]);\n            winningProposals.push(proposalsArray[winners[j]]);\n        }\n        workflowStatus = WorkflowStatus.VotesTallied;\n        emit WorkflowStatusChange(WorkflowStatus.VotingSessionEnded, WorkflowStatus.VotesTallied);\n    } */\n\n   function tallyVotes() external onlyOwner {\n       require(workflowStatus == WorkflowStatus.VotingSessionEnded, \"Current status is not voting session ended\");\n       uint _winningProposalId;\n      for (uint256 p = 0; p < proposalsArray.length; p++) {\n           if (proposalsArray[p].voteCount > proposalsArray[_winningProposalId].voteCount) {\n               _winningProposalId = p;\n          }\n       }\n       winningProposalID = _winningProposalId;\n       \n       workflowStatus = WorkflowStatus.VotesTallied;\n       emit WorkflowStatusChange(WorkflowStatus.VotingSessionEnded, WorkflowStatus.VotesTallied);\n    }\n}",
  "sourcePath": "/Users/rchea/workspaces/alyra/dapp/contracts/Voting.sol",
  "compiler": {
    "name": "solc",
    "version": "0.8.13+commit.abaa5c0e.Emscripten.clang"
  },
  "schemaVersion": "3.4.7",
  "updatedAt": "2022-04-24T20:24:33.304Z",
  "networkType": "ethereum",
  "devdoc": {
    "kind": "dev",
    "methods": {
      "owner()": {
        "details": "Returns the address of the current owner."
      },
      "renounceOwnership()": {
        "details": "Leaves the contract without owner. It will not be possible to call `onlyOwner` functions anymore. Can only be called by the current owner. NOTE: Renouncing ownership will leave the contract without an owner, thereby removing any functionality that is only available to the owner."
      },
      "transferOwnership(address)": {
        "details": "Transfers ownership of the contract to a new account (`newOwner`). Can only be called by the current owner."
      }
    },
    "version": 1
  },
  "userdoc": {
    "kind": "user",
    "methods": {},
    "version": 1
  }
}