{
  "contractName": "Voting",
  "abi": [
    {
      "anonymous": false,
      "inputs": [
        {
          "indexed": true,
          "internalType": "address",
          "name": "previousOwner",
          "type": "address"
        },
        {
          "indexed": true,
          "internalType": "address",
          "name": "newOwner",
          "type": "address"
        }
      ],
      "name": "OwnershipTransferred",
      "type": "event"
    },
    {
      "anonymous": false,
      "inputs": [
        {
          "indexed": false,
          "internalType": "uint256",
          "name": "proposalId",
          "type": "uint256"
        }
      ],
      "name": "ProposalRegistered",
      "type": "event"
    },
    {
      "anonymous": false,
      "inputs": [
        {
          "indexed": false,
          "internalType": "address",
          "name": "voter",
          "type": "address"
        },
        {
          "indexed": false,
          "internalType": "uint256",
          "name": "proposalId",
          "type": "uint256"
        }
      ],
      "name": "Voted",
      "type": "event"
    },
    {
      "anonymous": false,
      "inputs": [
        {
          "indexed": false,
          "internalType": "address",
          "name": "voterAddress",
          "type": "address"
        }
      ],
      "name": "VoterRegistered",
      "type": "event"
    },
    {
      "anonymous": false,
      "inputs": [
        {
          "indexed": false,
          "internalType": "enum Voting.WorkflowStatus",
          "name": "previousStatus",
          "type": "uint8"
        },
        {
          "indexed": false,
          "internalType": "enum Voting.WorkflowStatus",
          "name": "newStatus",
          "type": "uint8"
        }
      ],
      "name": "WorkflowStatusChange",
      "type": "event"
    },
    {
      "inputs": [],
      "name": "nbVoters",
      "outputs": [
        {
          "internalType": "uint256",
          "name": "",
          "type": "uint256"
        }
      ],
      "stateMutability": "view",
      "type": "function",
      "constant": true
    },
    {
      "inputs": [],
      "name": "owner",
      "outputs": [
        {
          "internalType": "address",
          "name": "",
          "type": "address"
        }
      ],
      "stateMutability": "view",
      "type": "function",
      "constant": true
    },
    {
      "inputs": [],
      "name": "renounceOwnership",
      "outputs": [],
      "stateMutability": "nonpayable",
      "type": "function"
    },
    {
      "inputs": [
        {
          "internalType": "address",
          "name": "newOwner",
          "type": "address"
        }
      ],
      "name": "transferOwnership",
      "outputs": [],
      "stateMutability": "nonpayable",
      "type": "function"
    },
    {
      "inputs": [],
      "name": "winningProposalID",
      "outputs": [
        {
          "internalType": "uint256",
          "name": "",
          "type": "uint256"
        }
      ],
      "stateMutability": "view",
      "type": "function",
      "constant": true
    },
    {
      "inputs": [],
      "name": "workflowStatus",
      "outputs": [
        {
          "internalType": "enum Voting.WorkflowStatus",
          "name": "",
          "type": "uint8"
        }
      ],
      "stateMutability": "view",
      "type": "function",
      "constant": true
    },
    {
      "inputs": [
        {
          "internalType": "address",
          "name": "_addr",
          "type": "address"
        }
      ],
      "name": "getVoter",
      "outputs": [
        {
          "components": [
            {
              "internalType": "bool",
              "name": "isRegistered",
              "type": "bool"
            },
            {
              "internalType": "bool",
              "name": "hasVoted",
              "type": "bool"
            },
            {
              "internalType": "uint256",
              "name": "votedProposalId",
              "type": "uint256"
            }
          ],
          "internalType": "struct Voting.Voter",
          "name": "",
          "type": "tuple"
        }
      ],
      "stateMutability": "view",
      "type": "function",
      "constant": true
    },
    {
      "inputs": [],
      "name": "getNbVoters",
      "outputs": [
        {
          "internalType": "uint256",
          "name": "",
          "type": "uint256"
        }
      ],
      "stateMutability": "view",
      "type": "function",
      "constant": true
    },
    {
      "inputs": [
        {
          "internalType": "uint256",
          "name": "_id",
          "type": "uint256"
        }
      ],
      "name": "getOneProposal",
      "outputs": [
        {
          "components": [
            {
              "internalType": "string",
              "name": "description",
              "type": "string"
            },
            {
              "internalType": "uint256",
              "name": "voteCount",
              "type": "uint256"
            }
          ],
          "internalType": "struct Voting.Proposal",
          "name": "",
          "type": "tuple"
        }
      ],
      "stateMutability": "view",
      "type": "function",
      "constant": true
    },
    {
      "inputs": [],
      "name": "getProposals",
      "outputs": [
        {
          "components": [
            {
              "internalType": "string",
              "name": "description",
              "type": "string"
            },
            {
              "internalType": "uint256",
              "name": "voteCount",
              "type": "uint256"
            }
          ],
          "internalType": "struct Voting.Proposal[]",
          "name": "",
          "type": "tuple[]"
        }
      ],
      "stateMutability": "view",
      "type": "function",
      "constant": true
    },
    {
      "inputs": [],
      "name": "getNbProposals",
      "outputs": [
        {
          "internalType": "uint256",
          "name": "",
          "type": "uint256"
        }
      ],
      "stateMutability": "view",
      "type": "function",
      "constant": true
    },
    {
      "inputs": [],
      "name": "getStatus",
      "outputs": [
        {
          "internalType": "enum Voting.WorkflowStatus",
          "name": "",
          "type": "uint8"
        }
      ],
      "stateMutability": "view",
      "type": "function",
      "constant": true
    },
    {
      "inputs": [
        {
          "internalType": "address",
          "name": "_addr",
          "type": "address"
        }
      ],
      "name": "addVoter",
      "outputs": [],
      "stateMutability": "nonpayable",
      "type": "function"
    },
    {
      "inputs": [
        {
          "internalType": "string",
          "name": "_desc",
          "type": "string"
        }
      ],
      "name": "addProposal",
      "outputs": [],
      "stateMutability": "nonpayable",
      "type": "function"
    },
    {
      "inputs": [
        {
          "internalType": "uint256",
          "name": "_id",
          "type": "uint256"
        }
      ],
      "name": "setVote",
      "outputs": [],
      "stateMutability": "nonpayable",
      "type": "function"
    },
    {
      "inputs": [],
      "name": "startProposalsRegistering",
      "outputs": [],
      "stateMutability": "nonpayable",
      "type": "function"
    },
    {
      "inputs": [],
      "name": "endProposalsRegistering",
      "outputs": [],
      "stateMutability": "nonpayable",
      "type": "function"
    },
    {
      "inputs": [],
      "name": "startVotingSession",
      "outputs": [],
      "stateMutability": "nonpayable",
      "type": "function"
    },
    {
      "inputs": [],
      "name": "endVotingSession",
      "outputs": [],
      "stateMutability": "nonpayable",
      "type": "function"
    },
    {
      "inputs": [],
      "name": "tallyVotes",
      "outputs": [],
      "stateMutability": "nonpayable",
      "type": "function"
    }
  ],
  "bytecode": "0x60806040523480156200001157600080fd5b5062000032620000266200003860201b60201c565b6200004060201b60201c565b62000104565b600033905090565b60008060009054906101000a900473ffffffffffffffffffffffffffffffffffffffff169050816000806101000a81548173ffffffffffffffffffffffffffffffffffffffff021916908373ffffffffffffffffffffffffffffffffffffffff1602179055508173ffffffffffffffffffffffffffffffffffffffff168173ffffffffffffffffffffffffffffffffffffffff167f8be0079c531659141344cd1fd0a4f28419497f9722a3daafe3b4186f6b6457e060405160405180910390a35050565b6128a880620001146000396000f3fe608060405234801561001057600080fd5b506004361061012c5760003560e01c8063a6d42870116100ad578063c88af42f11610071578063c88af42f146102b1578063d4f50f98146102bb578063ee74c678146102eb578063f2fde38b146102f5578063f4ab9adf146103115761012c565b8063a6d4287014610243578063a7bfab1614610261578063bdc014311461026b578063bfcddbbc14610289578063c7038a4e146102a75761012c565b80636ea212ca116100f45780636ea212ca146101af578063715018a6146101cd5780638da5cb5b146101d7578063a1edffa2146101f5578063a2788cce146102135761012c565b8063230796ae146101315780632fdae3c51461014d578063378a2178146101695780634e69d5601461017357806362564c4814610191575b600080fd5b61014b60048036038101906101469190611960565b61032d565b005b61016760048036038101906101629190611ad3565b610629565b005b61017161086c565b005b61017b610a4d565b6040516101889190611b93565b60405180910390f35b610199610a64565b6040516101a69190611d44565b60405180910390f35b6101b7610b5f565b6040516101c49190611d75565b60405180910390f35b6101d5610b69565b005b6101df610bf1565b6040516101ec9190611dd1565b60405180910390f35b6101fd610c1a565b60405161020a9190611b93565b60405180910390f35b61022d60048036038101906102289190611960565b610c2d565b60405161023a9190611e29565b60405180910390f35b61024b610d94565b6040516102589190611d75565b60405180910390f35b610269610da1565b005b610273610efb565b6040516102809190611d75565b60405180910390f35b610291610f01565b60405161029e9190611d75565b60405180910390f35b6102af610f07565b005b6102b9611061565b005b6102d560048036038101906102d09190611e77565b6111ba565b6040516102e29190611f01565b60405180910390f35b6102f36112e2565b005b61030f600480360381019061030a9190611e77565b61143c565b005b61032b60048036038101906103269190611e77565b611533565b005b600460003373ffffffffffffffffffffffffffffffffffffffff1673ffffffffffffffffffffffffffffffffffffffff16815260200190815260200160002060000160009054906101000a900460ff166103bc576040517f08c379a00000000000000000000000000000000000000000000000000000000081526004016103b390611f79565b60405180910390fd5b600360058111156103d0576103cf611b1c565b5b600260009054906101000a900460ff1660058111156103f2576103f1611b1c565b5b14610432576040517f08c379a00000000000000000000000000000000000000000000000000000000081526004016104299061200b565b60405180910390fd5b60011515600460003373ffffffffffffffffffffffffffffffffffffffff1673ffffffffffffffffffffffffffffffffffffffff16815260200190815260200160002060000160019054906101000a900460ff161515036104c8576040517f08c379a00000000000000000000000000000000000000000000000000000000081526004016104bf90612077565b60405180910390fd5b600380549050811115610510576040517f08c379a0000000000000000000000000000000000000000000000000000000008152600401610507906120e3565b60405180910390fd5b80600460003373ffffffffffffffffffffffffffffffffffffffff1673ffffffffffffffffffffffffffffffffffffffff168152602001908152602001600020600101819055506001600460003373ffffffffffffffffffffffffffffffffffffffff1673ffffffffffffffffffffffffffffffffffffffff16815260200190815260200160002060000160016101000a81548160ff021916908315150217905550600381815481106105c6576105c5612103565b5b906000526020600020906002020160010160008154809291906105e890612161565b91905055507f4d99b957a2bc29a30ebd96a7be8e68fe50a3c701db28a91436490b7d53870ca4338260405161061e9291906121a9565b60405180910390a150565b600460003373ffffffffffffffffffffffffffffffffffffffff1673ffffffffffffffffffffffffffffffffffffffff16815260200190815260200160002060000160009054906101000a900460ff166106b8576040517f08c379a00000000000000000000000000000000000000000000000000000000081526004016106af90611f79565b60405180910390fd5b600160058111156106cc576106cb611b1c565b5b600260009054906101000a900460ff1660058111156106ee576106ed611b1c565b5b1461072e576040517f08c379a00000000000000000000000000000000000000000000000000000000081526004016107259061221e565b60405180910390fd5b60405160200161073d90612264565b604051602081830303815290604052805190602001208160405160200161076491906122bd565b60405160208183030381529060405280519060200120036107ba576040517f08c379a00000000000000000000000000000000000000000000000000000000081526004016107b190612351565b60405180910390fd5b6107c2611834565b8181600001819052506003819080600181540180825580915050600190039060005260206000209060020201600090919091909150600082015181600001908051906020019061081392919061184e565b506020820151816001015550507f92e393e9b54e2f801d3ea4beb0c5e71a21cc34a5d34b77d0fb8a3aa1650dc18f60016003805490506108539190612371565b6040516108609190611d75565b60405180910390a15050565b610874611768565b73ffffffffffffffffffffffffffffffffffffffff16610892610bf1565b73ffffffffffffffffffffffffffffffffffffffff16146108e8576040517f08c379a00000000000000000000000000000000000000000000000000000000081526004016108df906123f1565b60405180910390fd5b600460058111156108fc576108fb611b1c565b5b600260009054906101000a900460ff16600581111561091e5761091d611b1c565b5b1461095e576040517f08c379a000000000000000000000000000000000000000000000000000000000815260040161095590612483565b60405180910390fd5b600080600090505b6003805490508110156109dc576003828154811061098757610986612103565b5b906000526020600020906002020160010154600382815481106109ad576109ac612103565b5b90600052602060002090600202016001015411156109c9578091505b80806109d490612161565b915050610966565b50806001819055506005600260006101000a81548160ff02191690836005811115610a0a57610a09611b1c565b5b02179055507f0a97a4ee45751e2abf3e4fc8946939630b11b371ea8ae39ccdc3056e98f5cc3f60046005604051610a429291906124a3565b60405180910390a150565b6000600260009054906101000a900460ff16905090565b60606003805480602002602001604051908101604052809291908181526020016000905b82821015610b565783829060005260206000209060020201604051806040016040529081600082018054610abb906124fb565b80601f0160208091040260200160405190810160405280929190818152602001828054610ae7906124fb565b8015610b345780601f10610b0957610100808354040283529160200191610b34565b820191906000526020600020905b815481529060010190602001808311610b1757829003601f168201915b5050505050815260200160018201548152505081526020019060010190610a88565b50505050905090565b6000600554905090565b610b71611768565b73ffffffffffffffffffffffffffffffffffffffff16610b8f610bf1565b73ffffffffffffffffffffffffffffffffffffffff1614610be5576040517f08c379a0000000000000000000000000000000000000000000000000000000008152600401610bdc906123f1565b60405180910390fd5b610bef6000611770565b565b60008060009054906101000a900473ffffffffffffffffffffffffffffffffffffffff16905090565b600260009054906101000a900460ff1681565b610c35611834565b600460003373ffffffffffffffffffffffffffffffffffffffff1673ffffffffffffffffffffffffffffffffffffffff16815260200190815260200160002060000160009054906101000a900460ff16610cc4576040517f08c379a0000000000000000000000000000000000000000000000000000000008152600401610cbb90611f79565b60405180910390fd5b60038281548110610cd857610cd7612103565b5b9060005260206000209060020201604051806040016040529081600082018054610d01906124fb565b80601f0160208091040260200160405190810160405280929190818152602001828054610d2d906124fb565b8015610d7a5780601f10610d4f57610100808354040283529160200191610d7a565b820191906000526020600020905b815481529060010190602001808311610d5d57829003601f168201915b505050505081526020016001820154815250509050919050565b6000600380549050905090565b610da9611768565b73ffffffffffffffffffffffffffffffffffffffff16610dc7610bf1565b73ffffffffffffffffffffffffffffffffffffffff1614610e1d576040517f08c379a0000000000000000000000000000000000000000000000000000000008152600401610e14906123f1565b60405180910390fd5b60036005811115610e3157610e30611b1c565b5b600260009054906101000a900460ff166005811115610e5357610e52611b1c565b5b14610e93576040517f08c379a0000000000000000000000000000000000000000000000000000000008152600401610e8a9061200b565b60405180910390fd5b6004600260006101000a81548160ff02191690836005811115610eb957610eb8611b1c565b5b02179055507f0a97a4ee45751e2abf3e4fc8946939630b11b371ea8ae39ccdc3056e98f5cc3f60036004604051610ef19291906124a3565b60405180910390a1565b60015481565b60055481565b610f0f611768565b73ffffffffffffffffffffffffffffffffffffffff16610f2d610bf1565b73ffffffffffffffffffffffffffffffffffffffff1614610f83576040517f08c379a0000000000000000000000000000000000000000000000000000000008152600401610f7a906123f1565b60405180910390fd5b60006005811115610f9757610f96611b1c565b5b600260009054906101000a900460ff166005811115610fb957610fb8611b1c565b5b14610ff9576040517f08c379a0000000000000000000000000000000000000000000000000000000008152600401610ff09061259e565b60405180910390fd5b6001600260006101000a81548160ff0219169083600581111561101f5761101e611b1c565b5b02179055507f0a97a4ee45751e2abf3e4fc8946939630b11b371ea8ae39ccdc3056e98f5cc3f600060016040516110579291906124a3565b60405180910390a1565b611069611768565b73ffffffffffffffffffffffffffffffffffffffff16611087610bf1565b73ffffffffffffffffffffffffffffffffffffffff16146110dd576040517f08c379a00000000000000000000000000000000000000000000000000000000081526004016110d4906123f1565b60405180910390fd5b600160058111156110f1576110f0611b1c565b5b600260009054906101000a900460ff16600581111561111357611112611b1c565b5b14611153576040517f08c379a000000000000000000000000000000000000000000000000000000000815260040161114a90612630565b60405180910390fd5b60028060006101000a81548160ff0219169083600581111561117857611177611b1c565b5b02179055507f0a97a4ee45751e2abf3e4fc8946939630b11b371ea8ae39ccdc3056e98f5cc3f600160026040516111b09291906124a3565b60405180910390a1565b6111c26118d4565b600460003373ffffffffffffffffffffffffffffffffffffffff1673ffffffffffffffffffffffffffffffffffffffff16815260200190815260200160002060000160009054906101000a900460ff16611251576040517f08c379a000000000000000000000000000000000000000000000000000000000815260040161124890611f79565b60405180910390fd5b600460008373ffffffffffffffffffffffffffffffffffffffff1673ffffffffffffffffffffffffffffffffffffffff1681526020019081526020016000206040518060600160405290816000820160009054906101000a900460ff161515151581526020016000820160019054906101000a900460ff161515151581526020016001820154815250509050919050565b6112ea611768565b73ffffffffffffffffffffffffffffffffffffffff16611308610bf1565b73ffffffffffffffffffffffffffffffffffffffff161461135e576040517f08c379a0000000000000000000000000000000000000000000000000000000008152600401611355906123f1565b60405180910390fd5b6002600581111561137257611371611b1c565b5b600260009054906101000a900460ff16600581111561139457611393611b1c565b5b146113d4576040517f08c379a00000000000000000000000000000000000000000000000000000000081526004016113cb906126c2565b60405180910390fd5b6003600260006101000a81548160ff021916908360058111156113fa576113f9611b1c565b5b02179055507f0a97a4ee45751e2abf3e4fc8946939630b11b371ea8ae39ccdc3056e98f5cc3f600260036040516114329291906124a3565b60405180910390a1565b611444611768565b73ffffffffffffffffffffffffffffffffffffffff16611462610bf1565b73ffffffffffffffffffffffffffffffffffffffff16146114b8576040517f08c379a00000000000000000000000000000000000000000000000000000000081526004016114af906123f1565b60405180910390fd5b600073ffffffffffffffffffffffffffffffffffffffff168173ffffffffffffffffffffffffffffffffffffffff1603611527576040517f08c379a000000000000000000000000000000000000000000000000000000000815260040161151e90612754565b60405180910390fd5b61153081611770565b50565b61153b611768565b73ffffffffffffffffffffffffffffffffffffffff16611559610bf1565b73ffffffffffffffffffffffffffffffffffffffff16146115af576040517f08c379a00000000000000000000000000000000000000000000000000000000081526004016115a6906123f1565b60405180910390fd5b600060058111156115c3576115c2611b1c565b5b600260009054906101000a900460ff1660058111156115e5576115e4611b1c565b5b14611625576040517f08c379a000000000000000000000000000000000000000000000000000000000815260040161161c906127e6565b60405180910390fd5b60011515600460008373ffffffffffffffffffffffffffffffffffffffff1673ffffffffffffffffffffffffffffffffffffffff16815260200190815260200160002060000160009054906101000a900460ff161515036116bb576040517f08c379a00000000000000000000000000000000000000000000000000000000081526004016116b290612852565b60405180910390fd5b6001600460008373ffffffffffffffffffffffffffffffffffffffff1673ffffffffffffffffffffffffffffffffffffffff16815260200190815260200160002060000160006101000a81548160ff0219169083151502179055506005600081548092919061172990612161565b91905055507fb6be2187d059cc2a55fe29e0e503b566e1e0f8c8780096e185429350acffd3dd8160405161175d9190611dd1565b60405180910390a150565b600033905090565b60008060009054906101000a900473ffffffffffffffffffffffffffffffffffffffff169050816000806101000a81548173ffffffffffffffffffffffffffffffffffffffff021916908373ffffffffffffffffffffffffffffffffffffffff1602179055508173ffffffffffffffffffffffffffffffffffffffff168173ffffffffffffffffffffffffffffffffffffffff167f8be0079c531659141344cd1fd0a4f28419497f9722a3daafe3b4186f6b6457e060405160405180910390a35050565b604051806040016040528060608152602001600081525090565b82805461185a906124fb565b90600052602060002090601f01602090048101928261187c57600085556118c3565b82601f1061189557805160ff19168380011785556118c3565b828001600101855582156118c3579182015b828111156118c25782518255916020019190600101906118a7565b5b5090506118d091906118f9565b5090565b6040518060600160405280600015158152602001600015158152602001600081525090565b5b808211156119125760008160009055506001016118fa565b5090565b6000604051905090565b600080fd5b600080fd5b6000819050919050565b61193d8161192a565b811461194857600080fd5b50565b60008135905061195a81611934565b92915050565b60006020828403121561197657611975611920565b5b60006119848482850161194b565b91505092915050565b600080fd5b600080fd5b6000601f19601f8301169050919050565b7f4e487b7100000000000000000000000000000000000000000000000000000000600052604160045260246000fd5b6119e082611997565b810181811067ffffffffffffffff821117156119ff576119fe6119a8565b5b80604052505050565b6000611a12611916565b9050611a1e82826119d7565b919050565b600067ffffffffffffffff821115611a3e57611a3d6119a8565b5b611a4782611997565b9050602081019050919050565b82818337600083830152505050565b6000611a76611a7184611a23565b611a08565b905082815260208101848484011115611a9257611a91611992565b5b611a9d848285611a54565b509392505050565b600082601f830112611aba57611ab961198d565b5b8135611aca848260208601611a63565b91505092915050565b600060208284031215611ae957611ae8611920565b5b600082013567ffffffffffffffff811115611b0757611b06611925565b5b611b1384828501611aa5565b91505092915050565b7f4e487b7100000000000000000000000000000000000000000000000000000000600052602160045260246000fd5b60068110611b5c57611b5b611b1c565b5b50565b6000819050611b6d82611b4b565b919050565b6000611b7d82611b5f565b9050919050565b611b8d81611b72565b82525050565b6000602082019050611ba86000830184611b84565b92915050565b600081519050919050565b600082825260208201905092915050565b6000819050602082019050919050565b600081519050919050565b600082825260208201905092915050565b60005b83811015611c14578082015181840152602081019050611bf9565b83811115611c23576000848401525b50505050565b6000611c3482611bda565b611c3e8185611be5565b9350611c4e818560208601611bf6565b611c5781611997565b840191505092915050565b611c6b8161192a565b82525050565b60006040830160008301518482036000860152611c8e8282611c29565b9150506020830151611ca36020860182611c62565b508091505092915050565b6000611cba8383611c71565b905092915050565b6000602082019050919050565b6000611cda82611bae565b611ce48185611bb9565b935083602082028501611cf685611bca565b8060005b85811015611d325784840389528151611d138582611cae565b9450611d1e83611cc2565b925060208a01995050600181019050611cfa565b50829750879550505050505092915050565b60006020820190508181036000830152611d5e8184611ccf565b905092915050565b611d6f8161192a565b82525050565b6000602082019050611d8a6000830184611d66565b92915050565b600073ffffffffffffffffffffffffffffffffffffffff82169050919050565b6000611dbb82611d90565b9050919050565b611dcb81611db0565b82525050565b6000602082019050611de66000830184611dc2565b92915050565b60006040830160008301518482036000860152611e098282611c29565b9150506020830151611e1e6020860182611c62565b508091505092915050565b60006020820190508181036000830152611e438184611dec565b905092915050565b611e5481611db0565b8114611e5f57600080fd5b50565b600081359050611e7181611e4b565b92915050565b600060208284031215611e8d57611e8c611920565b5b6000611e9b84828501611e62565b91505092915050565b60008115159050919050565b611eb981611ea4565b82525050565b606082016000820151611ed56000850182611eb0565b506020820151611ee86020850182611eb0565b506040820151611efb6040850182611c62565b50505050565b6000606082019050611f166000830184611ebf565b92915050565b600082825260208201905092915050565b7f596f75277265206e6f74206120766f7465720000000000000000000000000000600082015250565b6000611f63601283611f1c565b9150611f6e82611f2d565b602082019050919050565b60006020820190508181036000830152611f9281611f56565b9050919050565b7f566f74696e672073657373696f6e20686176656e74207374617274656420796560008201527f7400000000000000000000000000000000000000000000000000000000000000602082015250565b6000611ff5602183611f1c565b915061200082611f99565b604082019050919050565b6000602082019050818103600083015261202481611fe8565b9050919050565b7f596f75206861766520616c726561647920766f74656400000000000000000000600082015250565b6000612061601683611f1c565b915061206c8261202b565b602082019050919050565b6000602082019050818103600083015261209081612054565b9050919050565b7f50726f706f73616c206e6f7420666f756e640000000000000000000000000000600082015250565b60006120cd601283611f1c565b91506120d882612097565b602082019050919050565b600060208201905081810360008301526120fc816120c0565b9050919050565b7f4e487b7100000000000000000000000000000000000000000000000000000000600052603260045260246000fd5b7f4e487b7100000000000000000000000000000000000000000000000000000000600052601160045260246000fd5b600061216c8261192a565b91507fffffffffffffffffffffffffffffffffffffffffffffffffffffffffffffffff820361219e5761219d612132565b5b600182019050919050565b60006040820190506121be6000830185611dc2565b6121cb6020830184611d66565b9392505050565b7f50726f706f73616c7320617265206e6f7420616c6c6f77656420796574000000600082015250565b6000612208601d83611f1c565b9150612213826121d2565b602082019050919050565b60006020820190508181036000830152612237816121fb565b9050919050565b50565b600061224e600083611f1c565b91506122598261223e565b600082019050919050565b6000602082019050818103600083015261227d81612241565b9050919050565b600061228f82611bda565b6122998185611f1c565b93506122a9818560208601611bf6565b6122b281611997565b840191505092915050565b600060208201905081810360008301526122d78184612284565b905092915050565b7f566f7573206e6520706f7576657a20706173206e65207269656e2070726f706f60008201527f7365720000000000000000000000000000000000000000000000000000000000602082015250565b600061233b602383611f1c565b9150612346826122df565b604082019050919050565b6000602082019050818103600083015261236a8161232e565b9050919050565b600061237c8261192a565b91506123878361192a565b92508282101561239a57612399612132565b5b828203905092915050565b7f4f776e61626c653a2063616c6c6572206973206e6f7420746865206f776e6572600082015250565b60006123db602083611f1c565b91506123e6826123a5565b602082019050919050565b6000602082019050818103600083015261240a816123ce565b9050919050565b7f43757272656e7420737461747573206973206e6f7420766f74696e672073657360008201527f73696f6e20656e64656400000000000000000000000000000000000000000000602082015250565b600061246d602a83611f1c565b915061247882612411565b604082019050919050565b6000602082019050818103600083015261249c81612460565b9050919050565b60006040820190506124b86000830185611b84565b6124c56020830184611b84565b9392505050565b7f4e487b7100000000000000000000000000000000000000000000000000000000600052602260045260246000fd5b6000600282049050600182168061251357607f821691505b602082108103612526576125256124cc565b5b50919050565b7f5265676973746572696e672070726f706f73616c732063616e7420626520737460008201527f6172746564206e6f770000000000000000000000000000000000000000000000602082015250565b6000612588602983611f1c565b91506125938261252c565b604082019050919050565b600060208201905081810360008301526125b78161257b565b9050919050565b7f5265676973746572696e672070726f706f73616c7320686176656e742073746160008201527f7274656420796574000000000000000000000000000000000000000000000000602082015250565b600061261a602883611f1c565b9150612625826125be565b604082019050919050565b600060208201905081810360008301526126498161260d565b9050919050565b7f5265676973746572696e672070726f706f73616c73207068617365206973206e60008201527f6f742066696e6973686564000000000000000000000000000000000000000000602082015250565b60006126ac602b83611f1c565b91506126b782612650565b604082019050919050565b600060208201905081810360008301526126db8161269f565b9050919050565b7f4f776e61626c653a206e6577206f776e657220697320746865207a65726f206160008201527f6464726573730000000000000000000000000000000000000000000000000000602082015250565b600061273e602683611f1c565b9150612749826126e2565b604082019050919050565b6000602082019050818103600083015261276d81612731565b9050919050565b7f566f7465727320726567697374726174696f6e206973206e6f74206f70656e2060008201527f7965740000000000000000000000000000000000000000000000000000000000602082015250565b60006127d0602383611f1c565b91506127db82612774565b604082019050919050565b600060208201905081810360008301526127ff816127c3565b9050919050565b7f416c726561647920726567697374657265640000000000000000000000000000600082015250565b600061283c601283611f1c565b915061284782612806565b602082019050919050565b6000602082019050818103600083015261286b8161282f565b905091905056fea26469706673582212207bcce9cfe55f0f231ebf62c69a4cc00fcfe6d5210a63c7a92ca8e3878fc2325d64736f6c634300080d0033",
  "immutableReferences": {},
  "source": "// SPDX-License-Identifier: MIT\n\npragma solidity 0.8.13;\nimport \"@openzeppelin/contracts/access/Ownable.sol\";\n\n\ncontract Voting is Ownable {\n\n    // arrays for draw, uint for single\n    // uint[] winningProposalsID;\n    // Proposal[] public winningProposals;\n    uint public winningProposalID;\n    \n    struct Voter {\n        bool isRegistered;\n        bool hasVoted;\n        uint votedProposalId;\n    }\n\n    struct Proposal {\n        string description;\n        uint voteCount;\n    }\n\n    enum  WorkflowStatus {\n        RegisteringVoters,\n        ProposalsRegistrationStarted,\n        ProposalsRegistrationEnded,\n        VotingSessionStarted,\n        VotingSessionEnded,\n        VotesTallied\n    }\n\n    WorkflowStatus public workflowStatus;\n    Proposal[] proposalsArray;\n    mapping (address => Voter) voters;\n    uint public nbVoters;\n\n    event VoterRegistered(address voterAddress); \n    event WorkflowStatusChange(WorkflowStatus previousStatus, WorkflowStatus newStatus);\n    event ProposalRegistered(uint proposalId);\n    event Voted (address voter, uint proposalId);\n\n    modifier onlyVoters() {\n        require(voters[msg.sender].isRegistered, \"You're not a voter\");\n        _;\n    }\n    \n    // on peut faire un modifier pour les tats\n\n    // ::::::::::::: GETTERS ::::::::::::: //\n\n    function getVoter(address _addr) external onlyVoters view returns (Voter memory) {\n        return voters[_addr];\n    }\n\n    function getNbVoters() external view returns (uint) {\n        return nbVoters;\n    }\n    \n    function getOneProposal(uint _id) external onlyVoters view returns (Proposal memory) {\n        return proposalsArray[_id];\n    }\n\n    function getProposals() external view returns (Proposal[] memory) {\n        return proposalsArray;\n    }\n\n    function getNbProposals()external view returns (uint) {\n        return proposalsArray.length;\n    }\n\n    function getStatus() public view returns (WorkflowStatus) {\n        return workflowStatus;\n    }\n \n    // ::::::::::::: REGISTRATION ::::::::::::: // \n\n    function addVoter(address _addr) external onlyOwner {\n        require(workflowStatus == WorkflowStatus.RegisteringVoters, 'Voters registration is not open yet');\n        require(voters[_addr].isRegistered != true, 'Already registered');\n    \n        voters[_addr].isRegistered = true;\n        nbVoters++;\n        emit VoterRegistered(_addr);\n    }\n \n    /* facultatif\n     * function deleteVoter(address _addr) external onlyOwner {\n     *   require(workflowStatus == WorkflowStatus.RegisteringVoters, 'Voters registration is not open yet');\n     *   require(voters[_addr].isRegistered == true, 'Not registered.');\n     *   voters[_addr].isRegistered = false;\n     *  emit VoterRegistered(_addr);\n    }*/\n\n    // ::::::::::::: PROPOSAL ::::::::::::: // \n\n    function addProposal(string memory _desc) external onlyVoters {\n        require(workflowStatus == WorkflowStatus.ProposalsRegistrationStarted, 'Proposals are not allowed yet');\n        require(keccak256(abi.encode(_desc)) != keccak256(abi.encode(\"\")), 'Vous ne pouvez pas ne rien proposer'); // facultatif\n        // voir que desc est different des autres\n\n        Proposal memory proposal;\n        proposal.description = _desc;\n        proposalsArray.push(proposal);\n        emit ProposalRegistered(proposalsArray.length-1);\n    }\n\n    // ::::::::::::: VOTE ::::::::::::: //\n\n    function setVote( uint _id) external onlyVoters {\n        require(workflowStatus == WorkflowStatus.VotingSessionStarted, 'Voting session havent started yet');\n        require(voters[msg.sender].hasVoted != true, 'You have already voted');\n        require(_id <= proposalsArray.length, 'Proposal not found'); // pas oblig, et pas besoin du >0 car uint\n\n        voters[msg.sender].votedProposalId = _id;\n        voters[msg.sender].hasVoted = true;\n        proposalsArray[_id].voteCount++;\n\n        emit Voted(msg.sender, _id);\n    }\n\n    // ::::::::::::: STATE ::::::::::::: //\n\n    /* on pourrait factoriser tout a: par exemple:\n    *\n    *  modifier checkWorkflowStatus(uint  _num) {\n    *    require (workflowStatus=WorkflowStatus(uint(_num)-1, \"bad workflowstatus\");\n    *    require (num != 5, \"il faut lancer tally votes\");\n    *    _;\n    *  }\n    *\n    *  function setWorkflowStatus(WorkflowStatus _num) public checkWorkflowStatus( _num) onlyOwner {\n    *    WorkflowStatus old = workflowStatus;\n    *    workflowStatus = WorkflowStatus(_num);\n    *    emit WorkflowStatusChange(old, workflowStatus);\n    *   } \n    *\n    *  ou plus simplement:\n    *  function nextWorkflowStatus() onlyOwner{\n    *    require (uint(workflowStatus)!=4, \"il faut lancer tallyvotes\");\n    *    WorkflowStatus old = workflowStatus;\n    *    workflowStatus= WorkflowStatus(uint (workflowstatus) + 1);\n    *    emit WorkflowStatusChange(old, workflowStatus);\n    *  }\n    *\n    */ \n\n\n    function startProposalsRegistering() external onlyOwner {\n        require(workflowStatus == WorkflowStatus.RegisteringVoters, 'Registering proposals cant be started now');\n        workflowStatus = WorkflowStatus.ProposalsRegistrationStarted;\n        emit WorkflowStatusChange(WorkflowStatus.RegisteringVoters, WorkflowStatus.ProposalsRegistrationStarted);\n    }\n\n    function endProposalsRegistering() external onlyOwner {\n        require(workflowStatus == WorkflowStatus.ProposalsRegistrationStarted, 'Registering proposals havent started yet');\n        workflowStatus = WorkflowStatus.ProposalsRegistrationEnded;\n        emit WorkflowStatusChange(WorkflowStatus.ProposalsRegistrationStarted, WorkflowStatus.ProposalsRegistrationEnded);\n    }\n\n    function startVotingSession() external onlyOwner {\n        require(workflowStatus == WorkflowStatus.ProposalsRegistrationEnded, 'Registering proposals phase is not finished');\n        workflowStatus = WorkflowStatus.VotingSessionStarted;\n        emit WorkflowStatusChange(WorkflowStatus.ProposalsRegistrationEnded, WorkflowStatus.VotingSessionStarted);\n    }\n\n    function endVotingSession() external onlyOwner {\n        require(workflowStatus == WorkflowStatus.VotingSessionStarted, 'Voting session havent started yet');\n        workflowStatus = WorkflowStatus.VotingSessionEnded;\n        emit WorkflowStatusChange(WorkflowStatus.VotingSessionStarted, WorkflowStatus.VotingSessionEnded);\n    }\n\n    /* function tallyVotesDraw() external onlyOwner {\n       require(workflowStatus == WorkflowStatus.VotingSessionEnded, \"Current status is not voting session ended\");\n        uint highestCount;\n        uint[5]memory winners; // egalite entre 5 personnes max\n        uint nbWinners;\n        for (uint i = 0; i < proposalsArray.length; i++) {\n            if (proposalsArray[i].voteCount == highestCount) {\n                winners[nbWinners]=i;\n                nbWinners++;\n            }\n            if (proposalsArray[i].voteCount > highestCount) {\n                delete winners;\n                winners[0]= i;\n                highestCount = proposalsArray[i].voteCount;\n                nbWinners=1;\n            }\n        }\n        for(uint j=0;j<nbWinners;j++){\n            winningProposalsID.push(winners[j]);\n            winningProposals.push(proposalsArray[winners[j]]);\n        }\n        workflowStatus = WorkflowStatus.VotesTallied;\n        emit WorkflowStatusChange(WorkflowStatus.VotingSessionEnded, WorkflowStatus.VotesTallied);\n    } */\n\n   function tallyVotes() external onlyOwner {\n       require(workflowStatus == WorkflowStatus.VotingSessionEnded, \"Current status is not voting session ended\");\n       uint _winningProposalId;\n      for (uint256 p = 0; p < proposalsArray.length; p++) {\n           if (proposalsArray[p].voteCount > proposalsArray[_winningProposalId].voteCount) {\n               _winningProposalId = p;\n          }\n       }\n       winningProposalID = _winningProposalId;\n       \n       workflowStatus = WorkflowStatus.VotesTallied;\n       emit WorkflowStatusChange(WorkflowStatus.VotingSessionEnded, WorkflowStatus.VotesTallied);\n    }\n}",
  "sourcePath": "/Users/rchea/workspaces/alyra/dapp/contracts/Voting.sol",
  "compiler": {
    "name": "solc",
    "version": "0.8.13+commit.abaa5c0e.Emscripten.clang"
  },
  "schemaVersion": "3.4.7",
  "updatedAt": "2022-04-24T22:29:38.364Z",
  "networkType": "ethereum",
  "devdoc": {
    "kind": "dev",
    "methods": {
      "owner()": {
        "details": "Returns the address of the current owner."
      },
      "renounceOwnership()": {
        "details": "Leaves the contract without owner. It will not be possible to call `onlyOwner` functions anymore. Can only be called by the current owner. NOTE: Renouncing ownership will leave the contract without an owner, thereby removing any functionality that is only available to the owner."
      },
      "transferOwnership(address)": {
        "details": "Transfers ownership of the contract to a new account (`newOwner`). Can only be called by the current owner."
      }
    },
    "version": 1
  },
  "userdoc": {
    "kind": "user",
    "methods": {},
    "version": 1
  }
}